:1000000014C047C055C01FC091C01DC01CC01BC03C
:100010001AC019C018C017C016C015C014C013C02C
:1000200012C011C010C00FC052C011241FBECFEDAE
:10003000CDBF20E0A0E6B0E001C01D92A536B2071A
:10004000E1F702D0F5C2DCCF57D187D1B7D1BBD110
:1000500030D180916400882361F0829904C086E4E5
:100060008ED08823D1F360E080E0A2D010926400AB
:10007000F0CF80916300882361F3839904C086E404
:100080007ED08823D1F360E081E092D010926300AB
:10009000E0CF1F920F920FB60F9211248F9381E041
:1000A000809364008F910F900FBE0F901F90189552
:1000B0001F920F920FB60F9211248F9381E08093BD
:1000C00063008F910F900FBE0F901F9018951F9295
:1000D0000F920FB60F9211242F933F934F935F937C
:1000E0006F937F938F939F93AF93BF93EF93FF9300
:1000F00080916100909162009BBD8ABD6CD188B3F4
:10010000806188BB82B38F7B82BBFF91EF91BF91EF
:10011000AF919F918F917F916F915F914F913F919F
:100120002F910F900FBE0F901F9018951F920F9256
:100130000FB60F9211242F933F934F935F936F93BA
:100140007F938F939F93AF93BF93EF93FF9347D189
:1001500088B38F7E88BB82B3806482BBFF91EF91AE
:10016000BF91AF919F918F917F916F915F914F91CF
:100170003F912F910F900FBE0F901F9018958B3FBE
:10018000A8F4682F70E080E090E05BD123E23BEDC3
:1001900049E75FE3BAD127D1609562BF08B601FE97
:1001A000FDCF88B7826088BF80E0089581E0089520
:1001B00081112FC0809160008F5F80936000853037
:1001C00008F076C0823069F018F4813031F014C044
:1001D000833059F0843069F00FC088B3877F88BBC3
:1001E0000BC088B38B7F88BB07C088B38D7F88BB6B
:1001F00003C088B38E7F88BB61115AC080916100B3
:10020000909162008053984F9093620080936100B8
:100210000895813009F04CC080916000882309F472
:1002200047C08230B9F018F4813031F03CC08330DF
:10023000F9F0843059F137C08091610090916200EB
:10024000805D9740909362008093610088B38860DE
:1002500088BB29C08091610090916200805D9740C9
:10026000909362008093610088B3846088BB1BC058
:100270008091610090916200805D97409093620050
:100280008093610088B3826088BB0DC0809161005B
:1002900090916200805D974090936200809361002E
:1002A00088B3816088BB809160008150809360003A
:1002B0000895CF93DF9382B38F7D82BBC0E0D0E0FF
:1002C00016C088EC5CDF811111C0809161009091B3
:1002D00062008C509E4F9093620080936100DF5FBC
:1002E000D53020F061E080E063DFD0E0CF5FC43143
:1002F00040F3DF91CF91089587B3806187BB88B3C6
:100300008F7E88BB81B3806281BB88B3816088BBEC
:1003100087B3886087BB88B3826088BB87B38460FB
:1003200087BB88B3846088BB87B3826087BB88B390
:10033000886088BB87B3816087BB82B3806282BBE1
:1003400081B3806481BB82B3806482BB81B38061EE
:1003500081BB82B3806182BB089581B38B7F81BBF7
:1003600082B3846082BB81B3877F81BB82B38860A4
:1003700082BB81B38D7F81BB82B3826082BB8AB333
:100380008D7F8ABB8BB382608BBB81B38E7F81BB39
:1003900085B1816085B98BB780618BBF85B782607D
:1003A00085BF85B78E7F85BF85B7886085BF85B7D8
:1003B0008B7F85BF8BB7806C8BBF089512BE83B7D0
:1003C000856083BF08958EB588608EBD89B78064CF
:1003D00089BF789408958EB581608EBD08958EB5DD
:1003E0008E7F8EBD089570D088F09F5790F0B92F02
:1003F0009927B751A0F0D1F0660F771F881F991F7A
:100400001AF0BA95C9F712C0B13081F077D0B1E0D7
:10041000089574C0672F782F8827B85F39F0B93FE7
:10042000CCF3869577956795B395D9F73EF490957B
:100430008095709561957F4F8F4F9F4F0895E894F9
:1004400009C097FB3EF490958095709561957F4F1C
:100450008F4F9F4F9923A9F0F92F96E9BB279395CA
:10046000F695879577956795B795F111F8CFFAF4DA
:10047000BB0F11F460FF1BC06F5F7F4F8F4F9F4F0B
:1004800016C0882311F096E911C0772321F09EE869
:10049000872F762F05C0662371F096E8862F70E0CF
:1004A00060E02AF09A95660F771F881FDAF7880FA9
:1004B0009695879597F9089557FD9058440F551FC5
:1004C00059F05F3F71F04795880F97FB991F61F0D6
:1004D0009F3F79F087950895121613061406551F4D
:1004E000F2CF4695F1DF08C0161617061806991FB9
:1004F000F1CF86957105610508940895E894BB27AE
:1005000066277727CB0197F908950AD080C071D06C
:1005100028F076D018F0952309F062C067C0EFCFBD
:10052000CBDFA8F39923D9F35523C9F3950F50E0F6
:10053000551FAA27EE27FF27BB270024089467959D
:1005400020F4E20FF31FB41F0A1E220F331F441FB3
:10055000AA1F6695A9F7779530F4F30FB41F0A1E0A
:10056000121E08F46395330F441FAA1F221F7695AD
:1005700099F7879520F4B40F0A1E121E631F440FCB
:10058000AA1F221F331F8695A9F7862F712D602D74
:1005900011249F5750408AF0E1F088234AF0EE0F73
:1005A000FF1FBB1F661F771F881F91505040A9F780
:1005B0009E3F510570F014C0A2CF5F3FECF3983E10
:1005C000DCF3869577956795B795F795E7959F5FE7
:1005D000C1F7FE2B880F911D9695879597F9089581
:1005E00097F99F6780E870E060E008959FEF80ECE6
:1005F000089500240A941616170618060906089589
:1006000000240A9412161306140605060895092EEE
:100610000394000C11F4882352F0BB0F40F4BF2B5D
:1006200011F460FF04C06F5F7F4F8F4F9F4F08959D
:04063000F894FFCF6C
:00000001FF
