S00E00005A656C6D65722E73726563A7
S113000014C055C063C01FC01EC01DC01CC01BC08F
S11300101AC019C018C017C016C015C014C013C028
S113002012C011C010C00FC00EC011241FBECFEDEE
S1130030CDBF20E0A0E6B0E001C01D92A036B2071B
S1130040E1F702D08CC0DCCF50D080D014D0FFCFE9
S113005080EA96E8A1E0B0E002C0DB01CA01AC018D
S1130060BD014150510961097109892B8A2B8B2BE0
S1130070A1F780E00895CF93DF9387B3806187BBB6
S1130080C0E0DAE00FC08CB78F3F31F0DCBFE0DFB7
S1130090811107C0D65F05C08CB78A3F10F08FEF7F
S11300A08CBFCF5FC93178F3DF91CF9108951F9250
S11300B00F920FB60F9211248F938AB780648ABF70
S11300C08F910F900FBE0F901F9018951F920F9253
S11300D00FB60F9211248F938AB780688ABF8F91CD
S11300E00F900FBE0F901F90189581B3806281BB53
S11300F082B38F7D82BB87B3806187BB88B38F7ED9
S113010088BB87B3886087BB88B3877F88BB87B386
S1130110846087BB88B38B7F88BB87B3826087BBCF
S113012088B38D7F88BB87B3816087BB88B38E7F9C
S113013088BB81B3806481BB82B38F7B82BB81B374
S1130140806181BB82B38F7E82BB089583B7836253
S113015083BF83B7826083BF8AE08CBF0895F8941D
S1050160FFCFCB
S9030000FC
