:1000000014C0B4C0C2C02AC039C128C027C026C08D
:1000100025C024C023C022C021C020C01FC01EC0D4
:100020001DC01CC01BC01AC0BFC011241FBECFED15
:10003000CDBF10E0A0E6B0E0EAE7F7E002C005902F
:100040000D92A236B107D9F720E0A2E6B0E001C0D8
:100050001D92AB36B207E1F702D08DC3D1CFE4D108
:1000600082B38F7B82BB82B38F7E82BB14D24AD293
:100070004ED27894A8D182B3806482BB82B380616F
:1000800082BB809166008823D9F080916500811140
:1000900017C060B3647084E61DD18130D1F38091C4
:1000A0006000909161000A979093610080936000D6
:1000B00081E0809368001092660080E024D11DC02A
:1000C000809165008823C9F080916600811115C078
:1000D00060B3687084E6FED08130D1F38091600017
:1000E000909161000A96909361008093600081E096
:1000F000809367001092650006D1C99904C082B34D
:100100008F7B82BB03C082B3806482BB819904C0B1
:1001100082B38F7E82BB03C082B3806182BBC899E9
:1001200004C088B38F7788BBACCF88B3806888BBA6
:10013000A8CFCF93DF9300D0CDB7DD278AE090E042
:100140009A83898388B38F7E88BB89819A819C0139
:10015000215031093A832983892BB9F788B380610B
:1001600088BBCE5FCDBFDF91CF9108951F920F92D4
:100170000FB60F9211248F9381E0809366008F91C8
:100180000F900FBE0F901F9018951F920F920FB6F1
:100190000F9211248F9381E0809365008F910F90CF
:1001A0000FBE0F901F9018951F920F920FB60F92CF
:1001B00011242F933F934F935F936F937F938F936C
:1001C0009F93AF93BF93EF93FF9380916400882335
:1001D00039F08091690090916A009BBD8ABD3CC056
:1001E000809168008823B9F08AB59BB58935924023
:1001F00078F02AB53BB5809160009091610082173C
:10020000930730F48AB59BB50A979BBD8ABD24C07D
:100210001092680021C0809167008823E9F08091E6
:100220006300882319F01092630016C08AB59BB54D
:1002300088359B4178F42AB53BB580916000909158
:1002400061002817390730F48AB59BB50A969BBD23
:100250008ABD02C01092670061D1FF91EF91BF91FA
:10026000AF919F918F917F916F915F914F913F914E
:100270002F910F900FBE0F901F9018951F920F9205
:100280000FB60F9211242F933F934F935F936F9369
:100290007F938F939F93AF93BF93EF93FF9342D13D
:1002A00080916300882321F088B38F7E88BB01C0D2
:1002B00040DFFF91EF91BF91AF919F918F917F911F
:1002C0006F915F914F913F912F910F900FBE0F90C3
:1002D0001F9018958B3FA8F4682F70E080E090E0A5
:1002E00053D123E23BED49E75FE3B2D11FD16095E3
:1002F00062BF08B601FEFDCF88B7826088BF80E08C
:10030000089581E0089581112FC0809162008430AA
:1003100008F058C08091690090916A008835924039
:1003200008F450C0809162008F5F809362008091DA
:100330006200823069F018F4813031F00895833022
:1003400059F0843069F0089588B3877F88BB089599
:1003500088B38B7F88BB089588B38D7F88BB089551
:1003600088B38E7F88BB0895813061F580916200EB
:10037000882341F18091690090916A0089359B4101
:1003800008F580916200823069F018F4813031F014
:1003900014C0833059F0843069F00FC088B388608E
:1003A00088BB0BC088B3846088BB07C088B38260F9
:1003B00088BB03C088B3816088BB80916200815094
:1003C000809362000895CF9381E08093640082B3AC
:1003D0008F7D82BB80E49FE190936A0080936900E7
:1003E000C0E014C060E08CE375DF811105C0CF5F11
:1003F000C53010F088DFC0E08091690090916A00FC
:100400008257914090936A008093690080916900BF
:1004100090916A008935924028F781E080936300CB
:1004200010926400CF91089587B3806187BB88B331
:10043000806188BB81B3806281BB88B3816088BBE7
:1004400087B3886087BB88B3826088BB87B38460CA
:1004500087BB88B3846088BB87B3826087BB88B35F
:10046000886088BB87B3816087BB82B3806282BBB0
:1004700081B3806481BB82B3806482BB81B38061BD
:1004800081BB82B3806182BB87B3806887BB88B33E
:10049000806888BB089581B38B7F81BB82B3846001
:1004A00082BB81B3877F81BB82B3886082BB81B30B
:1004B0008D7F81BB82B3826082BB8AB38D7F8ABB12
:1004C0008BB382608BBB8AB38E7F8ABB8BB3816018
:1004D0008BBB81B38E7F81BB85B1816085B98BB7C2
:1004E00080618BBF85B7826085BF85B78E7F85BFF2
:1004F00085B7886085BF85B78B7F85BF8BB7806CDC
:100500008BBF089512BE83B7856083BF08958EB5F3
:1005100088608EBD89B7806489BF08958EB581607B
:100520008EBD08958EB58E7F8EBD089570D088F0F3
:100530009F5790F0B92F9927B751A0F0D1F0660FCF
:10054000771F881F991F1AF0BA95C9F712C0B130EA
:1005500081F077D0B1E0089574C0672F782F882795
:10056000B85F39F0B93FCCF3869577956795B39529
:10057000D9F73EF490958095709561957F4F8F4F98
:100580009F4F0895E89409C097FB3EF4909580959D
:10059000709561957F4F8F4F9F4F9923A9F0F92F49
:1005A00096E9BB279395F695879577956795B795C7
:1005B000F111F8CFFAF4BB0F11F460FF1BC06F5FAD
:1005C0007F4F8F4F9F4F16C0882311F096E911C0BF
:1005D000772321F09EE8872F762F05C0662371F0E0
:1005E00096E8862F70E060E02AF09A95660F771FF4
:1005F000881FDAF7880F9695879597F9089557FD24
:100600009058440F551F59F05F3F71F04795880F80
:1006100097FB991F61F09F3F79F087950895121617
:1006200013061406551FF2CF4695F1DF08C01616C3
:1006300017061806991FF1CF869571056105089474
:100640000895E894BB2766277727CB0197F908958B
:100650000AD080C071D028F076D018F0952309F028
:1006600062C067C0EFCFCBDFA8F39923D9F355233E
:10067000C9F3950F50E0551FAA27EE27FF27BB2788
:1006800000240894679520F4E20FF31FB41F0A1E9C
:10069000220F331F441FAA1F6695A9F7779530F4E0
:1006A000F30FB41F0A1E121E08F46395330F441F84
:1006B000AA1F221F769599F7879520F4B40F0A1E7A
:1006C000121E631F440FAA1F221F331F8695A9F70E
:1006D000862F712D602D11249F5750408AF0E1F034
:1006E00088234AF0EE0FFF1FBB1F661F771F881F6E
:1006F00091505040A9F79E3F510570F014C0A2CF11
:100700005F3FECF3983EDCF3869577956795B79558
:10071000F795E7959F5FC1F7FE2B880F911D969582
:10072000879597F9089597F99F6780E870E060E0F2
:1007300008959FEF80EC089500240A94161617067A
:1007400018060906089500240A94121613061406C2
:1007500005060895092E0394000C11F4882352F025
:10076000BB0F40F4BF2B11F460FF04C06F5F7F4FDD
:0A0770008F4F9F4F0895F894FFCFBC
:02077A00580223
:00000001FF
