S00E00005A656C6D65722E73726563A7
S113000014C021C020C01FC01EC01DC01CC01BC006
S11300101AC019C018C017C016C015C014C013C028
S113002012C011C010C00FC00EC011241FBECFEDEE
S1130030CDBF20E0A0E6B0E001C01D92A036B2071B
S1130040E1F702D048C0DCCF18D03CD001D0FFCFBC
S113005087B3806187BB80E09AE00CC02CB72F3F48
S113006019F09CBF965F05C02CB72A3F10F02FEF04
S11300702CBF8F5F893190F3089581B3806281BB77
S113008082B38F7D82BB87B3806187BB88B38F7E49
S113009088BB87B3886087BB88B3877F88BB87B3F7
S11300A0846087BB88B38B7F88BB87B3826087BB40
S11300B088B38D7F88BB87B3816087BB88B38E7F0D
S11300C088BB089583B7836283BF83B7826083BF8D
S10D00D08AE08CBF0895F894FFCF76
S9030000FC
