S00E00005A656C6D65722E73726563A7
S113000014C024C023C022C021C020C01FC01EC0F1
S11300101DC01CC01BC01AC019C018C017C016C010
S113002015C014C013C012C011C011241FBECFEDDF
S1130030CDBF10E0A0E6B0E0E2E8F0E002C0059039
S11300400D92A036B107D9F702D019C0D9CF01D08B
S1130050FFCF81B3806281BB82B38F7D82BB87B3C4
S1130060806187BB87B3886087BB87B3846087BBA5
S113007087B3826087BB87B3816087BB0895F89498
S1050080FFCFAC
S9030000FC
